:10000000BAC00000D3C00000D1C00000CFC00000C3
:10001000CDC00000CBC00000C9C00000C7C00000B8
:10002000C5C00000C3C00000FCC50000BFC0000088
:10003000BDC00000BBC00000B9C00000B7C00000D8
:10004000B5C00000B3C00000B1C00000AFC00000E8
:10005000ADC00000ABC00000A9C00000A7C00000F8
:10006000A5C0000005C30000A1C000009FC00000A3
:100070009DC000009BC0000099C0000097C0000018
:1000800095C0000093C0000091C000008FC0000028
:100090008DC000008BC0000089C0000087C0000038
:1000A00085C0000083C0000081C000002E034C000A
:1000B00055004600410020004B00650079006200B9
:1000C0006F00610072006400200045006D00750043
:1000D0006C00610074006F00720000001A0347009A
:1000E0006F006F0067006C00650020005300650022
:1000F000720076006F000000040309040902290061
:10010000010100E03209040000020301010009219D
:1001100011010001223F00070581030800050705C2
:1001200002030800051201100100000040EB034229
:100130002001000102000105010906A101050719BE
:10014000E029E715002501750195088102950175E3
:100150000881010508190129059505750191029588
:10016000017503910115002565050719002965959D
:100170000675088100C011241FBECFEFDAE0DEBF94
:10018000CDBF11E0A0E0B1E0E6EAF0E102C00590E9
:100190000D92A238B107D9F722E0A2E8B1E001C080
:1001A0001D92A73BB207E1F7DDD27BC729CFFC0147
:1001B0002FB7F894828593852FBF0895FC01A08105
:1001C000B1816C9380819181019691838083268196
:1001D00037818217930721F48481958191838083ED
:1001E0002FB7F894828593850196938782872FBFD6
:1001F0000895FC01A281B3818D91B383A2832681EE
:100200003781A217B30721F42481358133832283F8
:100210009FB7F8942285338521503109338722878F
:100220009FBF08959B01FC018FB7F8947183608391
:10023000738362837583648320583F4F378326839B
:1002400020E830E031872087138612868FBF08951B
:10025000E2E8F1E010821182128213821482158288
:100260000895E2E8F1E020E030E09191981731F054
:10027000911107C02E573E4FF901808381E090E035
:1002800008952F5F3F4F2630310579F78093820123
:10029000F5CFE2E8F1E020E030E09191981307C05B
:1002A0002E573E4FF901108281E090E008952F5FB4
:1002B0003F4F2630310589F780E090E0089581E0D6
:1002C000809302010895089542E061EC81E0C8D373
:1002D00042E060EC82E0C4D3E2EEF0E08081846032
:1002E000808308958091A8029091A902009729F037
:1002F00001979093A9028093A80208951F93CF932A
:10030000DF93EC0188E0FE0111928A95E9F780E124
:1003100092E04DDF892B71F080E192E06ADF182FC7
:10032000682F60958CE992E049DF17FF6EC0812F3E
:100330008F77AFDF82E891E028E831E040E0FC0110
:10034000A191CF013197A11591F0B0E0AD5FBE4F03
:100350005C91DE01A40FB11D12965C93A081B0E008
:10036000AD5FBE4F5C91513E09F461C04F5FA0810B
:10037000B0E0AD5FBE4F5C91553E19F458815062BC
:100380005883A081B0E0AD5FBE4F5C91503E19F440
:10039000588151605883A081B0E0AD5FBE4F5C9141
:1003A000543E19F4588150615883A081B0E0AD5F8C
:1003B000BE4F5C91523E19F4588154605883A0811D
:1003C000B0E0AD5FBE4F5C91563E19F45881506469
:1003D0005883A081B0E0AD5FBE4F5C91533E19F4ED
:1003E000588158605883E081F0E0ED5FFE4F508106
:1003F000573E19F45881506858832817390709F077
:100400009ECFDF91CF911F9108951F3709F492CFAE
:10041000E12FF0E0ED5FFE4F80818C3911F418DFA1
:1004200089CF111509F486CF812F1BDF83CF588127
:10043000526058839BCFCF93DF93CDB7DEB7289719
:100440000FB6F894DEBF0FBECDBF8091AF028930EA
:1004500009F443C088F4823009F48FC0833009F472
:100460005FC0813019F128960FB6F894DEBF0FBE39
:10047000CDBFDF91CF9108958A3009F463C08B30EE
:1004800091F78091AE02813271F78091E800877F09
:100490008093E80019D381E02091B0023091B1023D
:1004A000232B09F480E080930201DDCF8091AE021E
:1004B000813AC9F6CE01019621DF8091E800877F5D
:1004C0008093E80068E070E0CE01019614D280913C
:1004D000E8008B778093E800C6CF8091AE0281322E
:1004E00009F0C1CF8091E800877F8093E800809178
:1004F000E80082FF10C08091F1008091E8008B77C6
:100500008093E80028960FB6F894DEBF0FBECDBFEB
:10051000DF91CF91D9C28091AD028111E8CFA3CFF5
:100520008091AE02813A09F09ECF8091E800877FEA
:100530008093E800809102018093F1008091E800AF
:100540008E77DECF8091AE02813209F08CCF809120
:10055000E800877F8093E800B7D28091B002909145
:10056000B10236E0969587953A95E1F78C7F9370C6
:10057000909301018093000176CF8091AE02813A81
:1005800009F071CF8091E800877F8093E800809127
:100590000001909101019695879596958795CCCF0E
:1005A0000F931F93CF93DF93CDB7DEB728970FB686
:1005B000F894DEBF0FBECDBF81E08093E90080914B
:1005C000E80085FF31C08E010F5F1F4FC80196DE26
:1005D00080910001909101010097F1F02091A80213
:1005E0003091A902232BC1F49093A9028093A80211
:1005F00088E0F801A8E8B1E001900D928A95E1F752
:1006000040E050E068E070E0C80127D18091E80048
:100610008E778093E80008C048E050E0B80188E891
:1006200091E032D5892B21F728960FB6F894DEBFDA
:100630000FBECDBFDF91CF911F910F91089582E042
:100640008093E9008091E80082FF0AC08091E80071
:1006500085FD8091F1008091E8008B778093E80020
:1006600008958091AD02843011F49ADFE8CF0895A7
:100670001F920F920FB60F9211242F933F934F9317
:100680005F936F937F938F939F93AF93BF93CF931A
:10069000EF93FF93C091CE006FEF8CE992E0C1150C
:1006A000C1F08091AA02811519F0C2D01092AA025D
:1006B0008091AD02843071F480E192E078DD209188
:1006C0001802309119028217930721F06C2F80E1F4
:1006D00092E074DDFF91EF91CF91BF91AF919F9127
:1006E0008F917F916F915F914F913F912F910F90DB
:1006F0000FBE0F901F901895CF93DF93A9ECB0E039
:100700001C92C8ECD0E01882EAECF0E010825B9A10
:1007100087E690E09093CD008093CC0082E08883C0
:1007200088E98C9386E080835B98DF91CF91089570
:1007300084B7877F84BF0FB6F894A8958091600036
:10074000886180936000109260000FBE80E890E0A6
:100750000FB6F89480936100909361000FBE78DD2E
:1007600043D2CACFE5DF40E850E06CE172E08CE9AB
:1007700092E058DD40E850E060E971E080E192E00D
:1007800051DD78948091C80085FF0EC08CE992E01D
:100790000EDD892B49F08CE992E02BDD9091C800A9
:1007A00095FFFCCF8093CE005CDF55D4EBCF9C014E
:1007B000DA01832F992783309105B9F060F48130F5
:1007C000910561F10297E1F489E290E02CEF30E0CD
:1007D0002D933C9308958132910529F1829781F4FC
:1007E0008FE390E027E331E0F3CFC901992721306F
:1007F00061F08230910579F0E8EFF0E0892B39F073
:1008000080E090E020E030E0E3CFECEDF0E0849198
:1008100090E09F01DDCFECEAF0E0F9CF82E190E0DB
:1008200025E231E0D5CF89E090E02EE031E0D0CF75
:1008300019BC82E089BD09B400FEFDCF8091D800CB
:100840008F7D8093D8008091E00082608093E000EB
:100850008091E00081FDFCCF0895AF92BF92CF92CE
:10086000DF92FF920F931F93CF93DF936C01EB0105
:100870008A0149D1F82E811124C00115110539F0E2
:10088000F80180819181C81BD90BC80ED91EA12CFB
:10089000B12C2097B1F08091E80085FD22C08091B5
:1008A000E8008E778093E800D6D301151105A1F0FA
:1008B000F801808191818A0D9B1D9183808385E061
:1008C000F82E8F2DDF91CF911F910F91FF90DF9028
:1008D000CF90BF90AF90089516D18115E1F2F82E18
:1008E000F0CFF60181916F018093F1002197FFEF26
:1008F000AF1ABF0ACECFFC019B018091B402909148
:10090000B5028617970718F0672B61F0C90140E020
:10091000009771F441110CC08091E80082FF35C04E
:1009200080E008958091E8008E778093E800EECF14
:100930002091AD022115A9F12530A9F12091E800FF
:1009400023FD2DC02091E80022FDE6CF2091E80094
:1009500020FFDECF3091F3002091F200009719F0D4
:100960002034310558F041E02034310509F040E0F1
:100970002091E8002E772093E800CACF4191409360
:10098000F10001972F5F3F4FE9CF8091AD028115B4
:1009900041F0853041F08091E80083FFBDCF81E0D8
:1009A000089582E0089583E00895FC019B01809101
:1009B000B4029091B5028617970718F0672B61F083
:1009C000C90140E0009771F441110CC08091E8002A
:1009D00082FF36C080E008958091E8008E77809392
:1009E000E800EECF2091AD022115B1F12530B1F133
:1009F0002091E80023FD2EC02091E80022FDE6CFE3
:100A00002091E80020FFDECF3091F3002091F2002A
:100A1000009719F02034310558F041E020343105B9
:100A200009F040E02091E8002E772093E800CACF3B
:100A300044914093F100319601972F5F3F4FE8CFEB
:100A40008091AD02811541F0853041F08091E80040
:100A500083FFBCCF81E0089582E0089583E008958C
:100A6000982F973028F08F708093E90081E00895E7
:100A70009093E900242F762F50E0981731F0709171
:100A8000EC002091ED005091F00021FD02C09F5F2D
:100A9000E8CF3091EB003E7F3093EB003091ED00DA
:100AA0003D7F3093ED003091EB0031603093EB00EF
:100AB0007093EC002093ED005093F0002091EE0035
:100AC00027FDE5CF80E008958091AE0287FF13C037
:100AD0008091E80082FF06C08091E8008B778093C8
:100AE000E80008958091AD028111F2CF08958091C0
:100AF000AD028115D9F38091E80080FFF8CF809195
:100B0000E8008E77ECCF2091E4003091E50095E687
:100B1000A9012091EC00822F817020FF06C08091F6
:100B2000E80080FF06C080E008952091E80022FDE3
:100B30001AC08091AD02811589F0853089F08091CD
:100B4000EB0085FD0FC02091E4003091E5004217D5
:100B50005307F9F29A95E1F684E0089582E008954A
:100B600083E0089581E008950F931F93CF93DF935F
:100B70004BD052D0C8EDD0E088818F7788838881B0
:100B80008068888388818F7D888319BC1092AD022C
:100B90001092AC021092AA021092AB0200EE10E08A
:100BA000F80180818B7F808388818160888342E324
:100BB00060E080E055DFE1EEF0E080818E7F8083B1
:100BC000E2EEF0E0808181608083808188608083B4
:100BD000F80180818E7F8083888180618883DF91A6
:100BE000CF911F910F910895E8EDF0E080818F7E05
:100BF0008083E7EDF0E080818160808384E082BFC4
:100C000081E08093B602B0CFE8EDF0E080818E7F86
:100C100080831092E20008951092DA001092E100B1
:100C200008951F920F920FB60F9211242F933F93A6
:100C30004F935F936F937F938F939F93AF93BF93E4
:100C4000EF93FF938091E10082FF0AC08091E20060
:100C500082FF06C08091E1008B7F8093E10042DB40
:100C60008091DA0080FF17C08091D80080FF13C008
:100C70008091DA008E7F8093DA008091D90019BCD0
:100C800080FF87C082E089BD09B400FEFDCF81E00E
:100C90008093AD0214DB8091E10080FF18C0809149
:100CA000E20080FF14C08091E2008E7F8093E2001A
:100CB0008091E20080618093E2008091D8008062A0
:100CC0008093D80019BC85E08093AD02C3D1809198
:100CD000E10084FF27C08091E20084FF23C019BC9B
:100CE00082E089BD09B400FEFDCF8091D8008F7DE0
:100CF0008093D8008091E1008F7E8093E100809105
:100D0000E2008F7E8093E2008091E2008160809318
:100D1000E2008091AC02811509F43FC084E0809329
:100D2000AD0298D18091E10083FF22C08091E20062
:100D300083FF1EC08091E100877F8093E10082E005
:100D40008093AD021092AC028091E1008E7F80937F
:100D5000E1008091E2008E7F8093E2008091E200CA
:100D600080618093E20042E360E080E079DE72D14E
:100D7000FF91EF91BF91AF919F918F917F916F9173
:100D80005F914F913F912F910F900FBE0F901F9049
:100D900018951092AD0297DA7ECF8091E30087FF1D
:100DA00002C083E0BCCF81E0BACF1F93CF93DF9323
:100DB000CDB7DEB7AA970FB6F894DEBF0FBECDBF92
:100DC0008EEA92E0FC0101962091F100208322E05E
:100DD000863B9207B9F72FDB8091E80083FF10C0B4
:100DE0008091AE029091AF02953009F4D2C000F527
:100DF000292F2D7F213009F485C0911509F45DC09C
:100E00008091E80083FF0AC08091E800877F80938B
:100E1000E8008091EB0080628093EB00AA960FB609
:100E2000F894DEBF0FBECDBFDF91CF911F91089523
:100E3000983009F4E4C0993009F4EEC0963001F717
:100E400080588230E8F68091B0029091B1028C3DDA
:100E500053E0950709F0C0C083E08A838AE2898362
:100E60004FB7F894DE01139620E03EE051E2E32F05
:100E7000F0E050935700849120FF03C082958F705B
:100E80003F5F8F708A3008F4A5C0895C90E08D9335
:100E90009D932F5F243159F74FBF8091E800877FE2
:100EA0008093E8006AE270E0CE01019624DD809133
:100EB000E8008B778093E800A3CF803881F08238F8
:100EC00009F09ECF8091B2028F708093E9008091EB
:100ED000EB0085FB882780F91092E90006C080911D
:100EE000AA02880F9091AB02892B9091E800977F1E
:100EF0009093E8008093F1001092F1008091E80057
:100F00008E771AC081110CC08091B002813009F037
:100F100077CF81E0933009F080E08093AA0207C088
:100F2000823009F06DCF8091B002811549F01092A6
:100F3000E9008091E800877F8093E800C5DD60CFFD
:100F40008091B2028F70811509F45ACF8093E90025
:100F50002091EB0020FFEBCF933031F48091EB0038
:100F600080628093EB00E3CF9091EB0090619093CF
:100F7000EB0021E030E0A90102C0440F551F8A9523
:100F8000E2F74093EA001092EA008091EB0088605B
:100F9000E8CF811135CF1091B0021F778091E30027
:100FA0008078812B8093E3008091E800877F809395
:100FB000E8008ADD8091E80080FFFCCF8091E300AB
:100FC00080688093E30083E0111101C082E0809388
:100FD000AD0216CF805D5ACFAE014F5F5F4F60917B
:100FE000B202E5DBBC01892B09F40ACF8091E8004D
:100FF000877F8093E80089819A81D7DC58CF803839
:1010000009F0FECE8091E800877F8093E800809110
:10101000AC028093F10072CF8111F2CE9091B002B8
:10102000923008F0EDCE8091E800877F8093E80051
:101030009093AC0249DD8091AC02811529F084E0E7
:101040008093AD0241D9DCCE8091E30087FDF7CFDC
:1010500081E0F6CF0895CF938091AD02811591F094
:101060008091E900C091EC008F70C795CC27C7959F
:10107000C82B1092E9008091E80083FD96DECF70C6
:10108000C093E900CF910895FB01DC0104C08D916C
:101090000190801921F441505040C8F7881B990BEA
:0610A0000895F894FFCF53
:1010A600F4010100321E1F20212223242526272D8C
:1010B6002E002A2B141A0815171C180C12132F3081
:1010C6003139041607090A0B0D0E0F33340028E1D7
:1010D600001D1B06190511103637389CE5E000E2A5
:1010E6002CE600E40000000000E300000000494C8C
:1010F6000000504A4D0052514B4E00004F535F5C6A
:10110600590054605D5A6255615E5B6356575800DC
:101116000029003A3B3C3D3E3F4041424344454660
:02112600474838
:00000001FF
